:100000000C945D000C947A000C947A000C947A00A5
:100010000C947A000C947A000C947A000C947A0078
:100020000C947A000C947A000C947A000C947A0068
:100030000C947A000C947A000C947A000C947A0058
:100040000C947C000C947A000C947A000C947A0046
:100050000C947A000C947A000C947A000C947A0038
:100060000C947A000C947A00000000002400270011
:100070002A0000000000250028002B0004040404CE
:100080000404040402020202020203030303030342
:10009000010204081020408001020408102001021F
:1000A00004081020000000080002010000030407FB
:1000B0000000000000000000100111241FBECFEF5F
:1000C000D8E0DEBFCDBF21E0A0E0B1E001C01D92CD
:1000D000A531B207E1F710E0CDE5D0E004C02197EB
:1000E000FE010E949001CC35D107C9F70E94C600DD
:1000F0000C9496010C9400001F920F920FB60F9271
:1001000011242F933F938F939F93AF93BF9380912D
:10011000110190911201A0911301B091140130913D
:10012000100123E0230F2D3720F40196A11DB11DEE
:1001300005C026E8230F0296A11DB11D20931001D2
:100140008093110190931201A0931301B0931401B5
:1001500080910C0190910D01A0910E01B0910F01C1
:100160000196A11DB11D80930C0190930D01A093E8
:100170000E01B0930F01BF91AF919F918F913F916D
:100180002F910F900FBE0F901F901895789484B503
:10019000826084BD84B5816084BD85B5826085BD83
:1001A00085B5816085BD80916E00816080936E0011
:1001B0001092810080918100826080938100809103
:1001C00081008160809381008091800081608093B4
:1001D00080008091B10084608093B1008091B00074
:1001E00081608093B00080917A00846080937A006F
:1001F00080917A00826080937A0080917A00816099
:1002000080937A0080917A00806880937A001092BF
:10021000C100C0E0D0E02097F1F30E940000FBCFC6
:10022000CF93DF9341E950E0FA0164918DE790E0CC
:10023000FC012491222399F030E0220F331FF901B1
:10024000E859FF4FA591B4912E583F4FF901C59140
:10025000D4912FB7F8943C91632B6C932FBFE5EAB0
:10026000F0E02491FA014491FC0194919923C1F1A9
:10027000222339F1233091F038F42130A9F02230D3
:1002800001F584B58F7D12C0273091F02830A1F0A0
:100290002430B9F4809180008F7D03C0809180006C
:1002A0008F77809380000DC084B58F7784BD09C09F
:1002B0008091B0008F7703C08091B0008F7D8093D4
:1002C000B000E92FF0E0EE0FFF1FEE58FF4FA591B1
:1002D000B4918FB7F8949C91409549234C938FBF6C
:1002E0001092020181E080930001109201018AEFD7
:1002F00090E0A0E0B0E08093080190930901A09302
:100300000A01B0930B0110920401109205011092A2
:1003100006011092070110920301DF91CF91089519
:10032000EE0FFF1F0590F491E02D0994F894FFCF94
:00000001FF
